:100000000C9494250C94C1250C94C1250C94C12505
:100010000C94C1250C94C1250C94C1250C94C125C8
:100020000C94C1250C94C1250C94C1250C94C125B8
:100030000C94C1250D94F3300C94C1250C94C1256A
:100040000C94C1250C943DCD0C94C1250C94C12574
:100050000C94C1250C94C1250C9477D90D944A2D8C
:100060000C94C1250C94FD440C94C1250C94C1251D
:100070000C94C1250C94C1250C94C1250C94C12568
:100080000C94C1250C94C1250C94C1250C94C12558
:100090000C94C1250C94C1250C94C1250D94AE255A
:1000A0000C94C1250C94C1250C94C1250C94C12538
:1000B0000C94C1250C94C1250C94C1250C94C12528
:1000C0000C94C1250C94C1250C94C1250C94C12518
:1000D0000C94C1250C94C1250C94C1250C94C12508
:1000E0000C94C125084AD73B3BCE016E84BCBFFDB2
:1000F000C12F3D6C74319ABD56833DDA3D00C77FF8
:1001000011BED9E4BB4C3E916BAAAABE0000008090
:100110003F05A84CCDB2D44EB93836A9020C50B91F
:10012000918688083CA6AAAA2ABE000000803F4308
:10013000616E6E6F7420656E746572207375626493
:1001400069723A20004D3234004D3233202573005D
:100150006175746F25692E67006572726F72207702
:10016000726974696E6720746F2066696C65004EF1
:100170006F74205344207072696E74696E67002F2B
:10018000005344207072696E74696E6720627974DE
:100190006520002E0044656C6574696F6E20666191
:1001A000696C65642C2046696C653A200046696C70
:1001B000652064656C657465643A002E006F706537
:1001C0006E206661696C65642C2046696C653A2016
:1001D0000057726974696E6720746F2066696C6578
:1001E0003A20002E006F70656E206661696C656450
:1001F0002C2046696C653A20002E006F70656E20D9
:100200006661696C65642C2046696C653A2000461D
:10021000696C652073656C6563746564002053695F
:100220007A653A200046696C65206F70656E65647A
:100230003A20002E006F70656E206661696C6564FF
:100240002C2046696C653A20004E6F7720667265F7
:1002500073682066696C653A20004E6F7720646F82
:10026000696E672066696C653A20002220706F73A2
:10027000002220706172656E743A2200535542521A
:100280004F5554494E452043414C4C207461726790
:1002900065743A2200747279696E6720746F206306
:1002A000616C6C207375622D67636F64652066698D
:1002B0006C6573207769746820746F6F206D616E50
:1002C00079206C6576656C732E204D4158206C65E5
:1002D00076656C2069733A00534420636172642030
:1002E0006F6B006F70656E526F6F74206661696C22
:1002F000656400766F6C756D652E696E6974206635
:1003000061696C656400534420696E69742066619C
:10031000696C0048617264636F646564204465665B
:1003200061756C742053657474696E6773204C6FCB
:10033000616465640053746F7265642073657474DE
:10034000696E6773207265747269657665640020F2
:10035000643A200020623A2000613A200045716E24
:1003600020636F656666696369656E74733A002021
:1003700044002049002020204D33303120500050CF
:1003800049442073657474696E67733A00205A009B
:1003900020590020204D323036205800486F6D65BE
:1003A000206F666673657420286D6D293A002045BC
:1003B00000205A0020580020420020540020204DE8
:1003C000323035205300416476616E636564207677
:1003D00061726961626C65733A20533D4D696E20AC
:1003E000666565647261746520286D6D2F73292CB4
:1003F00020543D4D696E2074726176656C2066658F
:1004000065647261746520286D6D2F73292C2042FC
:100410003D6D696E696D756D207365676D656E7490
:100420002074696D6520286D73292C20583D6D61FD
:1004300078696D756D205859206A65726B20286D3A
:100440006D2F73292C20205A3D6D6178696D756D73
:10045000205A206A65726B20286D6D2F73292C201D
:1004600020453D6D6178696D756D2045206A657226
:100470006B20286D6D2F73290020540020204D32F1
:100480003034205300416363656C65726174696F39
:100490006E3A20533D616363656C65726174696F88
:1004A0006E2C20543D7265747261637420616363C5
:1004B000656C65726174696F6E00204500205A009A
:1004C00020590020204D3230312058004D6178698C
:1004D0006D756D20416363656C65726174696F6EE3
:1004E00020286D6D2F7332293A00204500205A00D4
:1004F00020590020204D3230332058004D6178695A
:100500006D756D2066656564726174657320286D14
:100510006D2F73293A00204500205A0020590020F1
:10052000204D393220580053746570732070657205
:1005300020756E69743A0053657474696E67732030
:1005400053746F726564004572726F723A0065632E
:10055000686F3A0053544F505045442E200050725B
:10056000696E7465722073746F7070656420647551
:100570006520746F206572726F72732E20466978E1
:1005800020746865206572726F7220616E642075D8
:100590007365204D39393920746F20726573746129
:1005A00072742E202854656D706572617475726561
:1005B0002069732072657365742E205365742069F9
:1005C00074206166746572207265737461727469F7
:1005D0006E6729004B494C4C45442E2000507269EF
:1005E0006E7465722068616C7465642E206B696C32
:1005F0006C28292063616C6C65642100FFFFFF6F2C
:100600006B00526573656E643A20002200556E6B74
:100610006E6F776E20636F6D6D616E643A2022009D
:10062000446179647265616D696E672E2E2E00508B
:100630007265737320746F20726573756D65005AEF
:10064000204F6666736574203A20007A5F6D61788A
:100650003A20007A5F6D696E3A20005A204F666634
:10066000736574005A204F6666736574206F6B0063
:100670006C636420636F6E74726173742076616C56
:1006800075653A2000486F74656E64206F66667306
:100690006574733A007A5F6D61783A20007A5F7012
:1006A000726F62653A20007A5F6D696E3A20007958
:1006B0005F6D61783A2000795F6D696E3A2000784D
:1006C0005F6D61783A2000785F6D696E3A20002096
:1006D0004170707278204C617965723A00205A3A04
:1006E0000020593A0020436F756E7420583A20005C
:1006F00020453A00205A3A0020593A00583A00461C
:1007000049524D574152455F4E414D453A4D6172F8
:100710006C696E20312E302E322E3139204C756CA2
:100720007A426F7420534F555243455F434F4445BF
:100730005F55524C3A68747470733A2F2F636F642C
:10074000652E616C6570686F626A656374732E6391
:100750006F6D2F646966667573696F6E2F4D4152B8
:100760004C494E2F2050524F544F434F4C5F5645EB
:100770005253494F4E3A312E30204D414348494E55
:10078000455F545950453A4C756C7A426F74205409
:10079000415A20362045585452554445525F434FE4
:1007A000554E543A3220555549443A38343566301E
:1007B0003033632D616562642D346535332D6136C8
:1007C00062392D3764303938346664653630390A19
:1007D000004C756C7A426F742054415A2036204F79
:1007E00066662E004C756C7A426F742054415A2014
:1007F000362072656164792E0042656420436F6F14
:100800006C696E6720646F6E652E004265642048D7
:10081000656174696E6720646F6E652E0020573ABB
:100820000020423A0020453A00543A0042656420D4
:10083000436F6F6C696E672E2E2E004265642048F0
:10084000656174696E672E2E2E00436F6F6C696E42
:100850006720646F6E652E0048656174696E67205D
:10086000646F6E652E0020573A0020453A00543AD6
:1008700000436F6F6C696E672E2E2E0048656174A1
:10088000696E672E2E2E002042403A0020403A002A
:10089000202F003A00205400202F0020423A002050
:1008A0002F006F6B20543A000A0A005374616E6483
:1008B00061726420446576696174696F6E3A2000E4
:1008C0000A004D65616E3A20000A002020207A3A25
:1008D000200000793A2000783A20003F5370656389
:1008E0006966696564206E756D626572206F662049
:1008F0006C65677320696E206D6F76656D656E74CB
:10090000206E6F7420706C61757361626C652E0A65
:10091000003F537065636966696564205920706F94
:10092000736974696F6E206F7574206F66207261D1
:100930006E67652E0A003F5370656369666965647A
:10094000205820706F736974696F6E206F75742002
:100950006F662072616E67652E0A003F5370656393
:1009600069666965642073616D706C652073697A6E
:1009700065206E6F7420706C61757361626C652E9A
:100980000A0046756C6C20737570706F727420610C
:10099000743A20687474703A2F2F33647072696EE1
:1009A00074626F6172642E636F6D2F666F72756D06
:1009B0002E7068700A004D3438205A2D50726F62C4
:1009C00065205265706561746162696C6974792033
:1009D000746573742E20202056657273696F6E20C3
:1009E000322E30300A003F566572626F7365204CBC
:1009F0006576656C206E6F7420706C6175736162D2
:100A00006C652E0A002569206D696E2C20256920F1
:100A100073656300456E642066696C65206C69735C
:100A20007400426567696E2066696C65206C697345
:100A300074004E6F206D6F76652E004C756C7A4297
:100A40006F742054415A20362072656164792E00FB
:100A5000526573756D696E67207072696E740057A8
:100A600061697420666F7220757365722E2E2E0078
:100A70000A00205A3A200020593A200020583A20F3
:100A8000004265640050726F62696E6720646F6E29
:100A900065210020643A200020623A200045716EF2
:100AA00020636F656666696369656E74733A206179
:100AB0003A200050524F4245204641494C20434C79
:100AC00045414E204E4F5A5A4C450050524F4245D8
:100AD000204641494C20434C45414E204E4F5A5AE6
:100AE0004C45004175746F206C6576656C696E6766
:100AF00000486F6D6520582F59206265666F7265DA
:100B0000205A00486F6D6520582F59206265666F26
:100B10007265205A005A2070726F6265206F75747A
:100B20002E20626564005A2070726F6265206F75B6
:100B3000742E2062656400486F6D6520582F59201F
:100B40006265666F7265205A00486F6D6520582F88
:100B500059206265666F7265205A0020643A200051
:100B600020623A200045716E20636F656666696396
:100B700069656E74733A20613A2000446179647249
:100B800065616D696E672E2E2E0000001643000011
:100B9000964300007A430000A0400000A0400000FF
:100BA0000040000000000000000000000000000005
:100BB00000000000000000000000000016430000DC
:100BC000964300007A430A00207A3A200020793ABE
:100BD000200020783A2000426564005265776970F1
:100BE000696E67005265776970696E6700256920D4
:100BF000686F757273202569206D696E75746573F1
:100C000000446F6E65207072696E74696E6720664D
:100C1000696C65004C756C7A426F742054415A209F
:100C2000362072656164792E0053544F505045440C
:100C30002E20005072696E7465722073746F70702C
:100C400065642064756520746F206572726F7273BD
:100C50002E2046697820746865206572726F722054
:100C6000616E6420757365204D39393920746F20A9
:100C7000726573746172742E202854656D7065728C
:100C800061747572652069732072657365742E20B6
:100C9000536574206974206166746572207265738F
:100CA00074617274696E6729004E6F204C696E65BD
:100CB000204E756D6265722077697468206368657F
:100CC000636B73756D2C204C617374204C696E6579
:100CD0003A20004E6F20436865636B73756D207713
:100CE000697468206C696E65206E756D6265722C22
:100CF000204C617374204C696E653A20006368650E
:100D0000636B73756D206D69736D617463682C20FE
:100D10004C617374204C696E653A20004C696E65B5
:100D2000204E756D626572206973206E6F74204C61
:100D3000617374204C696E65204E756D6265722B0F
:100D4000312C204C617374204C696E653A20004D43
:100D500031313000446F6E6520736176696E6720B3
:100D600066696C652E006F6B004D32390020205093
:100D70006C616E6E65724275666665724279746505
:100D8000733A20002046726565204D656D6F72795B
:100D90003A2000446563203232203230313700433C
:100DA0006F6D70696C65643A2000286E6F6E652CFB
:100DB0002064656661756C7420636F6E666967296F
:100DC00000207C20417574686F723A20004465638E
:100DD00020323220323031372031313A30363A3514
:100DE0003300204C61737420557064617465643AFB
:100DF0002000312E302E322E3139004D61726C6957
:100E00006E0020536F66747761726520526573655A
:100E10007400205761746368646F6720526573655E
:100E200074002042726F776E206F75742052657364
:100E30006574002045787465726E616C205265732C
:100E4000657400506F7765725570007374617274C9
:100E5000002200656E717565696E672022002200B0
:100E6000656E717565696E6720220020746F6F2052
:100E70006C6F6E6720657874727573696F6E207021
:100E8000726576656E7465640020636F6C642065BE
:100E90007874727573696F6E2070726576656E74A2
:100EA00065640000002110422063308440A550C6D4
:100EB00060E770088129914AA16BB18CC1ADD1CE98
:100EC000E1EFF13112100273325222B5529442F71F
:100ED00072D662399318837BB35AA3BDD39CC3FFE8
:100EE000F3DEE36224433420040114E664C774A4EF
:100EF0004485546AA54BB528850995EEE5CFF5AC38
:100F0000C58DD55336722611163006D776F66695FE
:100F100056B4465BB77AA719973887DFF7FEE79D87
:100F2000D7BCC7C448E5588668A77840086118024E
:100F3000282338CCC9EDD98EE9AFF9488969990AD7
:100F4000A92BB9F55AD44AB77A966A711A500A335E
:100F50003A122AFDDBDCCBBFFB9EEB799B588B3B27
:100F6000BB1AABA66C877CE44CC55C222C033C60AE
:100F70000C411CAEED8FFDECCDCDDD2AAD0BBD6877
:100F80008D499D977EB66ED55EF44E133E322E513E
:100F90001E700E9FFFBEEFDDDFFCCF1BBF3AAF59C7
:100FA0009F788F8891A981CAB1EBA10CD12DC14E38
:100FB000F16FE18010A100C230E3200450254046CB
:100FC000706760B9839893FBA3DAB33DC31CD37FEA
:100FD000E35EF3B1029012F322D23235421452771B
:100FE000625672EAB5CBA5A89589856EF54FE52CBA
:100FF000D50DC5E234C324A014810466744764246B
:10100000540544DBA7FAB79987B8975FE77EF71DC9
:10101000C73CD7D326F2369106B0165766767615BA
:101020004634564CD96DC90EF92FE9C899E9898A19
:10103000B9ABA94458654806782768C018E108820A
:1010400038A3287DCB5CDB3FEB1EFBF98BD89BBB29
:10105000AB9ABB754A545A376A167AF10AD01AB35A
:101060002A923A2EFD0FED6CDD4DCDAABD8BADE879
:101070009DC98D267C076C645C454CA23C832CE0AA
:101080001CC10C1FEF3EFF5DCF7CDF9BAFBABFD909
:101090008FF89F176E367E554E745E932EB23ED1FA
:1010A0000EF01E7C3C3E5E2B3D3F2F5B5D3B2C2AB1
:1010B000225C0045313A200045303A20005A3A205F
:1010C00000593A2000583A20004D53312C4D5332EC
:1010D0002050696E730A0024F404D9201BC40C5CF0
:1010E0000E9804C4095F0265077101F405F900FB5D
:1010F00004B30048048700C1036900580355000386
:10110000034500BE023A008402310053022A00293E
:1011100002250004022000E4011C00C8011900AFF0
:10112000011700980114008401130071011000617F
:1011300001100051010E0043010D0036010B002B80
:10114000010B0020010B00150109000C010900032F
:10115000010800FB000800F3000800EB000700E4B2
:10116000000600DE000600D8000600D2000600CC13
:10117000000500C7000500C2000500BD000400B95D
:10118000000400B5000400B1000400AD000400A993
:10119000000400A5000300A20003009F0004009BC0
:1011A00000030098000300950002009300030090E4
:1011B0000003008D0002008B0003008800020086FF
:1011C00000020084000300810002007F0002007D15
:1011D0000002007B00020079000200770001007627
:1011E0000002007400020072000100710002006F32
:1011F0000002006D0001006C0002006A000100693D
:101200000002006700010066000100650001006443
:101210000002006200010061000100600001005F47
:101220000002005D0001005C0001005B0001005A4B
:10123000000100590001005800010057000100564C
:10124000000100550001005400010053000000534C
:101250000001005200010051000100500001004F48
:101260000001004E0000004E0001004D0001004C46
:101270000001004B0000004B0001004A0001004942
:10128000000100480000004800010047000100463E
:101290000000004600010045000000450001004438
:1012A0000001004300000043000100420000004232
:1012B0000001004100000041000100400001003F2A
:1012C0000000003F0001003E0000003E0001003D24
:1012D0000000003D0001003C0000003C0000003C1C
:1012E0000001003B0000003B0001003A0000003A12
:1012F000000100390000003900010038000000380A
:1013000000000038000100370000003700010036FF
:1013100000000036000000360001003500000035F6
:1013200000000035000100340000003400000034EB
:1013300000010033000000330000003300010032E0
:1013400000000032000000320001003100000031D6
:1013500000000031000100300000003000000030CB
:101360000001002F0000002F0000002F0000002FC0
:101370000001002E0000002E0000002E0001002DB4
:101380000000002D0000002D0000002D0001002CA9
:101390000000002C0000002C0000002C0001002B9D
:1013A0000000002B0000002B0000002B0001002A91
:1013B0000000002A0000002A0000002A0001002985
:1013C0000000002900000029000000290000002979
:1013D000000100280000002800000028000000286C
:1013E000000000280001002700000027000000275F
:1013F0000000002700000027000100260000002652
:101400000000002600000026000000260001002544
:101410000000002500000025000000250000002538
:10142000000000250001002400000024000000242A
:10143000000000240000002400010023000000231D
:101440000000002300000023000000230000002310
:101450000000002300010022000000220000002202
:1014600000000022000000220000002200010021F4
:1014700000000021000000210000002100000021E8
:1014800000000021000000210001002000000020D9
:1014900000000020000000200000002000000020CC
:1014A00000000020000000200001001F0000001FBD
:1014B0000000001F0000001F0000001F0000001FB0
:1014C0000000001F0001001E0000001E0000001EA2
:1014D0000000001E00000024F4D43050C38E20C24F
:1014E000A24017828B7011127A910D816CD90AA8D3
:1014F00061E108C7586607615143061E4B5D05C18F
:1015000045A7041A411104093D980371393103407C
:1015100036DB0265339102D4305402802E1D026303
:101520002CEE01752AC501B028A001102781018F7A
:101530002564012B244B01E0223401AC211F018DD5
:10154000200D01801FFC00841EED00971DDF00B8F8
:101550001CD200E61BC600201BBC00641AB200B2FD
:1015600019A8000A19A0006A189900D11791004023
:10157000178B00B516840031167E00B31579003A3A
:10158000157300C7146F0058146A00EE13660088C4
:1015900013630025135E00C7125B006C1257001521
:1015A000125400C111510070114F0021114B00D68F
:1015B0001049008D1047004610440002104200C040
:1015C0000F4000800F3E00420F3C00060F3B00CB57
:1015D0000E3800930E37005C0E3500270E3400F3F2
:1015E0000D3200C10D3100900D3000600D2E003223
:1015F0000D2D00050D2C00D90C2B00AE0C290085FB
:101600000C29005C0C2700350C27000E0C2600E886
:101610000B2400C40B2400A00B23007D0B23005AD5
:101620000B2100390B2100180B2000F80A1F00D9EC
:101630000A1E00BB0A1E009D0A1D00800A1D0063D1
:101640000A1C00470A1B002C0A1B00110A1A00F78B
:10165000091A00DD091900C4091900AB0919009223
:101660000917007B091800630917004C091600369A
:10167000091600200916000A091500F5081500E0F2
:10168000081400CC081400B8081400A40814009032
:101690000813007D0812006B08130058081200465A
:1016A000081200340811002308110012081100016B
:1016B000081100F0071000E0071000D0071000C06C
:1016C000071000B0070F00A107100091070E00835C
:1016D000070F0074070F0065070E0057070E00493B
:1016E000070E003B070D002E070E0020070D00130C
:1016F000070D0006070D00F9060C00ED060D00E0D1
:10170000060C00D4060C00C8060C00BC060C00B089
:10171000060C00A4060B0099060C008D060B008237
:10172000060B0077060B006C060B0061060A0057DB
:10173000060B004C060A0042060A0038060A002E74
:10174000060A0024060A001A060A00100609000705
:10175000060A00FD050900F4050900EB050900E291
:10176000050900D9050900D0050900C7050900BE13
:10177000050900B5050800AD050800A50509009C90
:10178000050800940508008C050800840508007C05
:10179000050800740508006C050700650508005D74
:1017A000050700560508004E0507004705070040DD
:1017B00005080038050700310507002A0507002342
:1017C0000507001C050600160507000F05070008A1
:1017D00005060002050700FB040600F5040700EEFD
:1017E000040600E8040600E2040700DB040600D556
:1017F000040600CF040600C9040600C3040600BDA9
:10180000040600B7040600B1040500AC040600A6F7
:10181000040600A00405009B040600950405009042
:101820000406008A04050085040500800406007A89
:1018300004050075040500700405006B04050066CE
:10184000040500610405005C04050057040500520E
:101850000405004D04050048040500430405003E4E
:101860000404003A04050035040500300404002C8B
:1018700004050027040400230405001E0404001AC4
:1018800004040016040500110404000D04040009FA
:101890000405000404040000040400FC030400F830
:1018A000030400F4030400F0030400EC030400E864
:1018B000030400E4030400E0030400DC030400D894
:1018C000030400D4030400D0030400CC030400C8C4
:1018D000030300C5030300656E6473746F707320A7
:1018E0006869743A205A00205A3A00656E6473742D
:1018F0006F7073206869743A20590020593A006566
:101900006E6473746F7073206869743A2058002095
:10191000583A00656E6473746F7073206869743A26
:1019200020004572723A204D415854454D50204296
:1019300045440054656D7065726174757265206808
:101940006561746564206265642073776974636897
:101950006564206F66662E204D415854454D5020D9
:10196000747269676765726564202121004572722F
:101970003A204D494E54454D50003A2045787472F6
:1019800075646572207377697463686564206F6637
:10199000662E204D494E54454D502074726967673C
:1019A000657265642021004572723A204D41585499
:1019B000454D50003A204578747275646572207305
:1019C00077697463686564206F66662E204D4158A0
:1019D00054454D50207472696767657265642021B3
:1019E00000544845524D414C2052554E41574159A3
:1019F00000546865726D616C2052756E6177617913
:101A00002C2073797374656D2073746F70706564C6
:101A100021204865617465725F49443A2000202D99
:101A200020496E76616C69642065787472756465AE
:101A300072206E756D6265722021001000AD03305A
:101A4000016A0150022B0170030A019004F500B0F5
:101A500005E500D006D800F007CE001009C500301B
:101A60000ABE00500BB700700CB100900DAB00B077
:101A70000EA600D00FA200F0109D001012990030A9
:101A80001395005014920070158E0090168B00B0C4
:101A9000178700D0188400F0198100101B7E0030D9
:101AA0001C7B00501D7900701E7600901F7300B0E3
:101AB000207000D0216E00F0226B001024690030ED
:101AC000256600502663007027610090285E00B0F4
:101AD000295C00D02A5900F02B5600102D540030FC
:101AE0002E5100502F4E0070304B0090314800B006
:101AF000324500D0334200F0343E0010363B003017
:101B00003737005038330070392E00903A2900B032
:101B10003B2300D03C1B00F03D1100103F0100F0C2
:101B20003F000048656174696E67206661696C6595
:101B30006400504944204175746F74756E65206669
:101B4000696E6973686564212050757420746865D6
:101B5000206C617374204B702C204B6920616E6483
:101B6000204B6420636F6E7374616E7473206672B1
:101B70006F6D2061626F766520696E746F20436FB0
:101B80006E66696775726174696F6E2E6800504980
:101B900044204175746F74756E65206661696C656B
:101BA00064212074696D656F75740020403A006F80
:101BB0006B20543A006F6B20423A00504944204158
:101BC00075746F74756E65206661696C656421203B
:101BD00054656D706572617475726520746F6F20E5
:101BE0006869676800204B643A2000204B693A20FE
:101BF00000204B703A200020436C617373696320AE
:101C000050494420002054753A2000204B753A205A
:101C100000206D61783A2000206D696E3A20002026
:101C2000643A200020626961733A20001000C90202
:101C300010012C014001220170011801B0010E01B8
:101C4000F00104015002FA00B002F0003003E60097
:101C5000D003DC009004D2007005C800A006BE00CE
:101C60000008B400B009AA00D00BA000600E9600D6
:101C700060118C000015820020197800C01D6E00D4
:101C8000A0226400B0275A00902C5000003146007A
:101C9000E0343C0010383200903A2800603C1E00CE
:101CA000A03D1400803E0A00203F0000000000001C
:101CB00000000000000000007FFFE00000000000C6
:101CC000000000000000007000E0000000000000C4
:101CD000000000000000630C600000000000000035
:101CE0000000000000470E2000000000000000007F
:101CF000000000004F0F2000000000000000000066
:101D00000000005F0FA000000000000000000000C5
:101D100000005E07A07F80003FC00000000041047B
:101D200000406020FBC00079E0000000002082003D
:101D300040F020F3C00076E0000000002082004068
:101D4000F020EBC0007EE000000000410400406095
:101D5000207B80003DC0000000008208005E07A0DC
:101D60007B80003BC0000000010410005F0FA0FB5F
:101D7000C00077E0000000010410004F0F20FBC0FE
:101D80000070E000000000820800470E20FFC00045
:101D90007FE000000000410400630C603F00001F72
:101DA00080000000000000007000E01E00000F0036
:101DB00000000001FFFF807FFFE00C000006000034
:101DC000000001FFFF800000000000000000000094
:101DD00000000000007FFFE00000000000000000A5
:101DE000000000007000E0000000000000000000A3
:101DF00000000061F860000000000000000000002A
:101E0000000041F820000000000000000000000079
:101E10000040F02000000000000000000000000072
:101E2000406020000000000000000000000000589A
:101E300001A07F80003FC0000000004104005C63FF
:101E4000A0FBC00079E0000000002082005EF7A047
:101E5000F3C00076E0000000002082005EF7A0EBF7
:101E6000C0007EE0000000004104005C63A07B80B5
:101E7000003DC0000000008208005801A07B8000E7
:101E80003BC000000001041000406020FBC0007750
:101E9000E00000000104100040F020FBC00070E0F2
:101EA0000000000082080041F820FFC0007FE00031
:101EB00000000041040061F8603F00001F80000046
:101EC00000000000007000E01E00000F0000000095
:101ED00001FFFF807FFFE00C000006000000000112
:101EE000FFFF8000000059002D2D3A2D2D20202DC0
:101EF0002D2E2D25002020203130302500202000DF
:101F0000B02000B020000000000000000000000031
:101F100000000000000000000000000000000000C1
:101F20000000000000000000000C000000000000A5
:101F3000000C000000000000001200000000000083
:101F4000002300000000000000210000000000004D
:101F5000004C800000000000005E800000000000D7
:101F6000009240000000000000A1400000000000BE
:101F70000121200000000000027F9000000000000E
:101F8000020010000000000007FFF8000000000041
:101F90000400080000000000080004000000000029
:101FA0000800060000000000100002000000000011
:101FB000301E010000000000207F810000000000B2
:101FC00041FFE0800000000043FCF08000000000C2
:101FD000873B7840000000018EDBFC6000000001C0
:101FE0000FEBCC20000000021FEDB6100000000235
:101FF0001FDEB6100000000439CD7F080000000489
:1020000036E0FF08000000087EC0BB840000001816
:102010007F005D86000000107FC0ED820000002080
:102020003CC07301000000203B337F0100000070C2
:102030001BE77E03800000C81DEEDE04C0000088A0
:102040000FDEDC04400001240FDF3C0920000126E4
:1020500007DBF8192000027203E7F0139000025129
:1020600001FFE02290000489007F802448000904D9
:10207000801E004824000BFE400000DFF40010002A
:102080004000008002001FFFFFFFFFFFFE00000076
:102090000000000000000000000000000000000040
:1020A0000000000000001022103C3C0E1F00102217
:1020B0001004221104001022100822110400102222
:1020C00010083C11040010221010221104001022EC
:1020D0001020221104001E1C1E3C3C0E04000000B7
:1020E00000000000000000000000000000000000F0
:1020F00000000000000000000000000000000000E0
:1021000000000000000000000000000000000000CF
:1021100000000000000000000000000000000000BF
:1021200000000000000000000000000000000000AF
:10213000000000000000000000000000000000009F
:10214000000000004E6F2053442063617264005011
:1021500072696E742066726F6D2053440053746F01
:1021600070207072696E7400526573756D652070B1
:1021700072696E74005061757365207072696E7457
:1021800000436F6E66696775726174696F6E0054A3
:10219000656D7065726174757265004D6F76656D01
:1021A000656E740054756E6500496E666F207363CA
:1021B0007265656E005072696E742066726F6D2074
:1021C0005344005072696E742066726F6D205344E0
:1021D00000F92E2E004D61696E004D3234004D32F3
:1021E00033202573005072696E742061626F7274BF
:1021F000656400526573746F726520746F20466168
:1022000063746F7279004C6F6164207365747469D4
:102210006E677300536176652073657474696E67C9
:102220007300416476616E636564207365747469DC
:102230006E6773004D61696E004573746570732F2E
:102240006D6D004573746570732F6D6D005A7374F6
:102250006570732F6D6D005A73746570732F6D6D9B
:10226000005973746570732F6D6D005973746570C8
:10227000732F6D6D005873746570732F6D6D0058FA
:1022800073746570732F6D6D00412D72657472618A
:10229000637400412D7265747261637400416D61F5
:1022A00078206500416D6178206500416D6178207E
:1022B0007A00416D6178207A00416D617820790063
:1022C000416D6178207900416D6178207800416D21
:1022D00061782078005654726176206D696E0056E0
:1022E00054726176206D696E00566D696E00566D90
:1022F000696E00566D6178206500566D61782065C5
:1023000000566D6178207A00566D6178207A00560B
:102310006D6178207900566D6178207900566D6185
:1023200078207800566D617820780056652D6A65B2
:10233000726B0056652D6A65726B00567A2D6A6560
:10234000726B00567A2D6A65726B005678792D6A29
:1023500065726B005678792D6A65726B0041636314
:10236000656C00416363656C005A204F6666736557
:102370007400436F6E66696775726174696F6E0091
:102380005A204F6666736574007F80FFC0FFC0FFF0
:10239000C07F807F80FFC0FFC0FFC03F001E000CD9
:1023A00000FFFFFF001FE000303000400800800405
:1023B00001800601000207C0020380020100020042
:1023C00000020000020000060000040000080030C7
:1023D00030001FE0060006000600060006000600AA
:1023E0003FC01F800F00060007F8000C0C00100211
:1023F000002001006001804000804003E04001C0F7
:1024000040008040000040000060000020000010FC
:1024100000000C0C0007F80006000F001F803FC0F2
:1024200006000600060006000600060006000F0073
:102430001F803FC0060006000600060006000600DA
:10244000060006000600060006000600060006005C
:1024500006000600060006003FC01F800F000600B1
:10246000436F6F6C646F776E0046616E20737065AA
:1024700065640046616E2073706565640042656442
:1024800000426564004E6F7A7A6C6532004E6F7A56
:102490007A6C6532004E6F7A7A6C65004E6F7A7A8C
:1024A0006C65004D61696E004D6F766520617869DD
:1024B00073004D38340044697361626C6520737435
:1024C00065707065727300473238004175746F2013
:1024D000686F6D65004D61696E004D6F76652030E7
:1024E0002E316D6D004D6F766520316D6D004D6F35
:1024F00076652031306D6D004D6F76656D656E745B
:10250000004578747275646572004D6F7665205A67
:10251000004D6F76652059004D6F76652058004D4F
:102520006F766520617869730045787472756465AB
:1025300072005A00590058004D363030004368612F
:102540006E67652066696C616D656E7400417070C0
:102550007278204C61796572004170707278204CFD
:102560006179657200466C6F77203100466C6F7739
:1025700020310046616E2073706565640046616EAF
:1025800020737065656400466C6F7700466C6F77EA
:102590000042656400426564004E6F7A7A6C653271
:1025A000004E6F7A7A6C6532004E6F7A7A6C6500F5
:1025B0004E6F7A7A6C650053706565640053706580
:1025C0006564004D61696E004C756C7A426F7420D1
:1025D00054415A20362072656164792E004361723D
:1025E0006420696E736572746564004D3330302009
:1025F000533639382050323030004D33303020538C
:1026000036353920503230300000060900FE060110
:102610008902FE20FFFE07FE06FE000000060007FE
:102620000106060602008080808000800303030606
:102630000103A0A0A00507070600FF5050F850F8BE
:1026400050500509090600FE2070A8A07028A87047
:10265000200608080600FF40A84810204854080536
:1026600007070600FF6090906098906801030306DA
:1026700002038080800207070602FF40808080807E
:1026800080400207070602FF80404040404080052E
:1026900005050600008850F850880505050600006D
:1026A0002020F820200204040602FEC040408005DD
:1026B0000101060002F8020202060200C0C0040680
:1026C0000606010010102040808004060606010066
:1026D00060909090906003060606010040C0404064
:1026E00040E00406060601006090102040F0040659
:1026F00006060100F020601010E005060606000046
:1027000010305090F810040606060100F080E0102A
:1027100010E00406060601006080E0909060040668
:1027200006060100F01010204040040606060100D5
:1027300060906090906004060606010060909070C2
:102740001060020505060200C0C000C0C0020707F5
:102750000602FEC0C000C04040800505050600001E
:102760001860806018050303060001F800F80505ED
:1027700005060000C0300830C004070706010060ED
:102780009010604000400506060600007090A8B05A
:102790008070050606060000205088F88888050627
:1027A00006060000F088F08888F00406060601009E
:1027B000609080809060040606060100E090909092
:1027C00090E0040606060100F080E08080F0040638
:1027D00006060100F080E080808004060606010005
:1027E000609080B090600406060601009090F09022
:1027F0009090030606060100E040404040E00506D8
:10280000060600003810101090600406060601004D
:1028100090A0C0A0909004060606010080808080F1
:1028200080F005060606000088D8A8A88888040657
:102830000606010090D0B0909090050606060000B4
:10284000708888888870040606060100E09090E091
:1028500080800407070601FF609090D0B0601004EC
:102860000606060100E09090E0909004060606013E
:1028700000609040209060050606060000F82020C9
:10288000202020040606060100909090909060049D
:102890000606060100909090F060600506060600AE
:1028A000008888A8A8D88805060606000088502059
:1028B0002050880506060600008888502020200445
:1028C0000606060100F010204080F003060606010F
:1028D00000E080808080E0040606060100808040E1
:1028E000201010030606060100E020202020E0054D
:1028F00003030600032050880501010600FEF802CC
:102900000202060204804004040406010070909054
:10291000700406060601008080E09090E004040444
:102920000601007080807004060606010010107019
:1029300090907004040406010060B0C070040606A4
:10294000060100205040E040400406060601FE60FB
:1029500090907010600406060601008080E0909060
:10296000900306060601004000C04040E00308084E
:102970000601FE200060202020A04004060606017B
:10298000008080A0C0A090030606060100C0404061
:102990004040E0050404060000D0A8A88804040410
:1029A000060100E0909090040404060100609090FD
:1029B000600406060601FEE09090E08080040606B2
:1029C0000601FE709090701010040404060100A02F
:1029D000D0808004040406010070C030E0040606C4
:1029E0000601004040E0405020040404060100902D
:1029F0009090700404040601009090606005040447
:102A000006000088A8A85004040406010090606035
:102A1000900406060601FE909090709060040404F5
:102A2000060100F02040F0030707060100204040A7
:102A3000804040200107070602FF80808080808060
:102A400080030707060100804040204040800402C8
:102A50000206010350A0FFFFFFFFFFFFFFFFFFFF84
:102A6000FFFFFFFFFFFFFFFFFFFFFFFFFFFFFFFF76
:102A7000FFFFFFFFFFFFFF00000006000701060643
:102A80000602008000808080800406060601FF2088
:102A900070A0A070200507070600FF304840F040F6
:102AA00040F8050505060000A8508850A805060650
:102AB0000600008850F820F8200107070602FF8072
:102AC0008080008080800407070601FF708060908E
:102AD0006010E0030101060105A0060707060000DB
:102AE000788494A494847803050506010160A060AD
:102AF00000E00505050600002850A0502804030347
:102B0000060100F01010040101060102F00607079B
:102B10000600007884B4A4A48478040101060105A9
:102B2000F00403030601026090600507070600FF3A
:102B30002020F8202000F803050506010140A02010
:102B400040E0030505060101C0204020C00202024A
:102B500006020440800405050601FF9090B0D08075
:102B600005060606000078E8E86828280101010645
:102B70000202800202020602FE40800305050601F1
:102B80000140C04040E003050506010140A04000AF
:102B9000E0050505060000A0502850A0050808061D
:102BA00000FF40C04050703078100508080600FF54
:102BB00040C04050680810380508080600FFC020D3
:102BC0004030F03078100407070601002000206034
:102BD000809060050707060000402020507088881C
:102BE0000507070600001020205070888805070799
:102BF0000600002050205070888805070706000056
:102C000028502050708888050707060000500020D3
:102C100050708888050707060000205020507088F3
:102C20008805060606000078A0F0A0A0B8040808F1
:102C30000601FE6090808090602040040707060136
:102C4000004020F080E080F00407070601002040EB
:102C5000F080E080F00407070601002050F080E0DB
:102C600080F00407070601005000F080E080F003C8
:102C700007070601008040E0404040E003070706E8
:102C800001002040E0404040E0030707060100400B
:102C9000A0E0404040E0030707060100A000E0403C
:102CA0004040E00506060600007048E84848700409
:102CB000070706010050A090D0B0909004070706C7
:102CC00001004020609090906004070706010020FA
:102CD00040609090906004070706010020506090CB
:102CE00090906004070706010050A06090909060EB
:102CF00004070706010050006090909060050505EC
:102D000006000088502050880408080601FF107053
:102D1000B0B0D0D0E08004070706010040209090BA
:102D2000909060040707060100204090909090600A
:102D30000407070601002050909090906004070758
:102D40000601005000909090906005070706000073
:102D50001020885020202004060606010080E09004
:102D600090E0800406060601006090A0A090A004F8
:102D700007070601004020007090907004070706C6
:102D800001002040007090907004070706010020A9
:102D900050007090907004070706010050A000706A
:102DA0009090700406060601005000709090700428
:102DB000070706010020502070909070050404065B
:102DC000000070A8B0780406060601FE70808070CE
:102DD000204004070706010040200060B0C07004D6
:102DE000070706010020400060B0C0700407070616
:102DF000010020500060B0C07004060606010050BB
:102E00000060B0C070030707060100804000C040AA
:102E100040E0030707060100204000C04040E003F7
:102E2000070706010040A000C04040E00306060678
:102E30000100A000C04040E0040707060100306028
:102E4000107090906004070706010050A000E09009
:102E500090900407070601004020006090906004F5
:102E600007070601002040006090906004070706F5
:102E70000100205000609090600407070601005098
:102E8000A00060909060040606060100500060906B
:102E900090600505050600002000F80020040404E9
:102EA00006010070B0D0E0040707060100402000D2
:102EB00090909070040707060100204000909090C9
:102EC00070040707060100205000909090700406DF
:102ED000060601005000909090700409090601FE5A
:102EE0002040009090907090600408080601FE80D9
:102EF00080E09090E080800408080601FE50009079
:102F0000909070906000060900FE070199032B2045
:102F1000FFFE08FE07FE000000060000010707068E
:102F2000020080808080800080030303060104A0EB
:102F3000A0A00507070600005050F850F8505005B3
:102F400007070600002070A07028702005070706FC
:102F5000000048A8502050A8900507070600004030
:102F6000A0A040A8906801030306020480808003AB
:102F700007070601002040808080402003070706E5
:102F800001008040202020408005050506000188C2
:102F900050F850880505050600012020F820200380
:102FA00003030601FF604080050101060003F803EA
:102FB00003030601FF40E04005070706000008087C
:102FC0001020408080050707060000205088888870
:102FD00050200507070600002060A0202020F805EB
:102FE0000707060000708808304080F805070706CC
:102FF0000000F80810300888700507070600001068
:10300000305090F81010050707060000F880B0C88F
:10301000088870050707060000304080B0C8887037
:10302000050707060000F8081010204040050707B4
:103030000600007088887088887005070706000001
:10304000708898680810600307070601FF40E04099
:103050000040E0400307070601FF40E040006040F9
:10306000800407070601001020408040201005035F
:1030700003060002F800F80407070601008040205C
:1030800010204080050707060000708810202000EF
:1030900020050707060000708898A8B08070050713
:1030A0000706000020508888F88888050707060072
:1030B00000F04848704848F005070706000070888F
:1030C0008080808870050707060000F0484848485F
:1030D00048F0050707060000F88080F08080F805BA
:1030E0000707060000F88080F0808080050707064B
:1030F00000007088808098887005070706000088A7
:103100008888F8888888030707060100E040404067
:103110004040E005070706000038101010109060CE
:103120000507070600008890A0C0A0908805070743
:10313000060000808080808080F805070706000078
:103140008888D8A88888880507070600008888C866
:10315000A8988888050707060000708888888888EE
:1031600070050707060000F08888F0808080050859
:10317000080600FF7088888888A870080507070679
:103180000000F08888F0A09088050707060000700E
:10319000888070088870050707060000F820202046
:1031A0002020200507070600008888888888887006
:1031B000050707060000888888505050200507073B
:1031C000060000888888A8A8D88805070706000098
:1031D0008888502050888805070706000088885096
:1031E00020202020050707060000F8081020408056
:1031F000F8030707060100E08080808080E0050773
:103200000706000080804020100808030707060119
:1032100000E02020202020E00503030600042050C9
:10322000880501010600FFF802020206020680403E
:103230000505050600007008788878050707060070
:10324000008080B0C888C8B00505050600007088F9
:103250008088700507070600000808689888986845
:103260000505050600007088F88070050707060050
:1032700000304840F04040400507070600FE7888CF
:1032800088780888700507070600008080B0C88825
:1032900088880307070601004000C0404040E00462
:1032A00009090601FE10003010101090906005070B
:1032B0000706000080808890E090880307070601D9
:1032C00000C04040404040E0050505060000D0A891
:1032D000A8A888050505060000B0C88888880505E7
:1032E0000506000070888888700507070600FEB094
:1032F000C888C8B080800507070600FE68988898CF
:10330000680808050505060000B0C880808005052E
:103310000506000070807008F005070706000040F1
:1033200040F0404048300505050600008888889830
:10333000680505050600008888505020050505062B
:1033400000008888A8A850050505060000885020C0
:1033500050880507070600FE888898680888700569
:103360000505060000F8102040F8040707060100D4
:10337000304020C0204030010707060200808080D6
:1033800080808080040707060100C0204030402074
:10339000C005030306000448A890000000010000D7
:1033A000000000010000000000010000000000011A
:1033B000000000000001000000000001000000000B
:1033C00000010000000000010000000000010000FA
:1033D00000000001000000000001000000000001EA
:1033E00000000000000100000000000100000000DB
:1033F00000010000000000010000000000010000CA
:1034000000000001000000000001000000000001B9
:1034100000000000000100000000000100000000AA
:103420000001000000000001000000000001000099
:103430000000000100000000000100000000000189
:10344000000000000001000000000001000000007A
:103450000001000000000001000000000001000069
:1034600000000006000001070706020080008080BF
:103470008080800507070600FF2078A0A0A07820A4
:10348000050707060000304840E04048B005050544
:1034900006000088705070880508080600FF8888BC
:1034A0005020F820202001070706020080808000BD
:1034B0008080800508080600FF7080E0904838088A
:1034C00070030101060107A00507070600007088C8
:1034D000A8C8A888700406060601017090B05000C4
:1034E000F006050506000024489048240402020660
:1034F0000102F010040101060103F00507070600B0
:10350000007088E8C8C88870050101060007F80344
:10351000030306010440A040050606060000202023
:10352000F82020F804050506010360902040F0040F
:103530000505060103E0106010E002020206020623
:1035400040800506060600FF888888C8B080050709
:103550000706000078E8E86828282801010106022B
:1035600003800202020602FE4080030505060103F5
:1035700040C04040E00406060601016090906000F3
:10358000F006050506000090482448900609090643
:1035900000FF40C04040E40C143C0406090906004A
:1035A000FF40C04040E81404081C0509090600FF5C
:1035B000C0204020C818287808050707060000200A
:1035C0000020204088700508080600004020708810
:1035D00088F888880508080600001020708888F898
:1035E00088880508080600002050708888F88888B8
:1035F00005080806000048B0708888F88888050823
:10360000080600005000708888F8888805080806B9
:1036100000002050708888F8888806070706000098
:103620003C50909CF0909C0509090600FE70888033
:1036300080808870204005080806000040F88080DF
:10364000F08080F805080806000010F88080F080FF
:1036500080F805080806000020F88080F08080F8D7
:1036600005080806000050F88080F08080F8030804
:10367000080601008040E040404040E003080806A2
:1036800001002040E040404040E0030808060100FF
:1036900040A0E040404040E0030808060100A000D0
:1036A000E040404040E0050707060000F04848E8D9
:1036B0004848F0050808060000285088C8A89888DF
:1036C00088050808060000402070888888887005F2
:1036D000080806000010207088888888700508088F
:1036E0000600002050708888888870050808060049
:1036F00000285070888888887005080806000050E7
:1037000000708888888870050505060000885020AC
:103710005088050707060000709898A8C8C870056B
:1037200008080600004020888888888870050808F6
:103730000600001020888888888870050808060020
:10374000002050008888888870050808060000500E
:10375000008888888888700508080600001020887E
:10376000885020202005070706000080F088F080A0
:103770008080050707060000708890A09088B0053B
:1037800008080600004020007008788878050808BE
:1037900006000010200070087888780508080600E8
:1037A0000020500070087888780508080600002876
:1037B00050007008788878050707060000500070F0
:1037C00008788878050808060000205020700878DE
:1037D000887806050506000078147C907C050707AC
:1037E0000600FE70888088702040050808060000EA
:1037F0004020007088F8807005080806000010203E
:10380000007088F8807005080806000020500070DD
:1038100088F8807005070706000050007088F8805F
:1038200070030808060100804000C0404040E003EB
:103830000808060100408000C0404040E00308083E
:1038400006010040A000C0404040E0060A0A060011
:10385000FEA4A800FC8480808084FC060A0A06007E
:10386000FE549400FC8404040484FC05080806004B
:1038700000285000B0C88888880508080600004065
:1038800020007088888870040A0A0602FE30408092
:1038900090909090909090040A0A0600FEC020102C
:1038A00090909090909090060707060001448C8CB1
:1038B0008480403C06070706000188C4C4840408CD
:1038C000F00505050600012000F80020050808069F
:1038D000000040F0C88888987810050808060000A5
:1038E000E0F88888888888F80505050600012030FA
:1038F000F830200508080600002070F8202020205D
:10390000E00509090600FF2070A8A8B888885020A3
:103910000509090600FFE080C0B0A8A830282805E6
:1039200009090600FFF8A88888888888A8F8050A89
:103930000A0600FE205050505088A8A888700A003F
:1039400020000A00207A3A200020793A20002078CE
:103950003A200001050800FF060121023520FFFF83
:1039600007FF06FF090050221656808080800080E5
:10397000153353A0A0A00257575050F850F850509C
:103980000257572070A07028702013355580A04032
:10399000A02002475740A0A040A0A050251353806C
:1039A00080801226564080808080401226568040BB
:1039B000404040800245559060F06090025555208F
:1039C00020F82020113353604080044151F011331E
:1039D0005340E04002465610102040808012365678
:1039E00040A0A0A0A04012365640C0404040E00297
:1039F00046566090106080F0024656F020601090AD
:103A0000600246562060A0F02020024656F080E07A
:103A10001090600246566080E0909060024656F03A
:103A20001020204040024656609060909060024610
:103A300056609090701060122555C0C000C0C01133
:103A400036566060006040801236562040808040CC
:103A500020034353F000F01236568040202040806F
:103A600012365640A020400040015858304898A8CF
:103A7000A8904030024656609090F09090024656D2
:103A8000E090E09090E00246566090808090600266
:103A90004656E090909090E0024656F080E080809C
:103AA000F0024656F080E0808080024656609080AA
:103AB000B090600246569090F0909090123656E08A
:103AC00040404040E002465670202020A040024680
:103AD0005690A0C0A0A0900246568080808080F0C2
:103AE00002465690F0F090909002465690D0F0B07A
:103AF000B090024656609090909060024656E090DA
:103B000090E08080014757609090D0B060100246EE
:103B100056E09090E0909002465660904020906071
:103B2000123656E0404040404002465690909090F9
:103B30009060024656909090906060024656909039
:103B400090F0F09002465690906060909002565629
:103B5000888850202020024656F010204080F01225
:103B60003656E080808080E00246568080402010FB
:103B700010123656E020202020E016325240A001DC
:103B80004151F016225280400244547090907002CD
:103B900046568080E09090E012345460808060024D
:103BA000465610107090907002445460B0C060028D
:103BB0004656205040E040400145556090701060EE
:103BC0000246568080E09090901236564000C040E9
:103BD00040E01137572000202020A04002465680A8
:103BE0008090E09090123656C040404040E0025431
:103BF00054D0A8A8A8024454E09090900244546085
:103C0000909060014555E090E080800145557090AE
:103C1000701010024454A0D0808012345460C02030
:103C2000C00246564040E0405020024454909090DC
:103C300070123454A0A0A04002545488A8A8500286
:103C4000445490606090014555909070906002449B
:103C500054F02040F0024757304020C0204030222E
:103C60001656808080808080024757C020403040B8
:103C700020C006425250A0FFFFFFFFFFFFFFFFFFE3
:103C8000FFFFFFFFFFFFFFFFFFFFFFFFFFFFFFFF44
:103C9000FFFFFFFFFFFFFFFF0900502216568000C5
:103CA000808080800146562070A0A0702002465679
:103CB0002050E04050A00255558870507088025640
:103CC000568850F820F82022175780808000808086
:103CD000800247577080E0907010E0173151A002C9
:103CE000565670A8C8C8A87014355560A06000E08A
:103CF00003435350A050123353E02020143151E0BD
:103D000002565670E8D8E8D870173151E015335391
:103D100040A04012355540E04000E014355540A029
:103D20002040E0143555C020C020C01622524080EB
:103D3000014555909090E08002565678E8E8682852
:103D40002824115180112252408014355540C04022
:103D500040E014355540A04000E0034353A050A07C
:103D6000024757808080A060F0200247578080A0E3
:103D7000D010207002475780408060A0F02012369B
:103D80005640004080A04002475740206090F0908D
:103D90009002475720406090F09090024757609003
:103DA0006090F0909002475750A06090F090900281
:103DB000475790006090F090900247576090609055
:103DC000F0909002465670A0A0F0A0B00147576056
:103DD0009080809060400247574020F080E080F063
:103DE0000247572040F080E080F00247576090F093
:103DF00080E080F00247579000F080E080F01237BA
:103E0000578040E0404040E01237572040E04040BB
:103E100040E012375740A0E0404040E0123757A042
:103E200000E0404040E00256567048E848487002C2
:103E3000475750A090D0B0909002475740206090D4
:103E400090906002475720406090909060024757E2
:103E50006090609090906002475750A06090909062
:103E60006002475790006090909060123353A040DA
:103E7000A002465670B0B0D0D0E002475740209024
:103E80009090906002475720409090909060024739
:103E9000576090909090906002475790009090905B
:103EA00090600257571020885020202002465680EC
:103EB000E09090E0800246566090A0A090A002475B
:103EC000574020007090907002475720400070903B
:103ED00090700247572050007090907002475750E2
:103EE000A000709090700246565000709090700242
:103EF000475760906070909070025454F068B078AA
:103F0000113555608080604002475740200060B006
:103F1000C06002475720400060B0C0600247576051
:103F2000900060B0C060024656500060B0C06012A1
:103F30003757804000C04040E0123757204000C053
:103F40004040E012375740A000C04040E0123656D3
:103F5000A000C04040E0024757A040A01070906011
:103F600002475750A000E090909002475740200031
:103F70006090906002475720400060909060024738
:103F8000576090006090906002475750A00060908A
:103F90009060024656900060909060123555400047
:103FA000E0004002445470B0D0E002475740200087
:103FB0009090907002475720400090909070024778
:103FC00057609000909090700246569000909090AC
:103FD00070014858204000909070906001475780D1
:103FE00080E090E080800147579000909070906052
:103FF00001070E00FE0A018A031E20FFFE0CFE0BC5
:10400000FE0E0070321A7A8080808080808000806E
:1040100080293474A0A0A0A0125A7A505050F850B1
:1040200050F8505050016B7B107894945038149491
:10403000947810026A7A6494987010203864A49876
:10404000026A7A3048484830649488986439147415
:1040500080808080204D7D10204040808080808046
:1040600040402010104D7D80402020101010101076
:104070002020408013577720A8702070A820135765
:1040800077202020F8202020202474C04040801673
:104090005171F821337340E040006D7D040408083D
:1040A000101010202040408080026A7A30488484BA
:1040B000848484844830125A7A2060A020202020F2
:1040C0002020F8026A7A788484040808102040FCD2
:1040D000026A7AFC040810380404848478026A7A3C
:1040E00008182828484888FC0808026A7AFC80805A
:1040F000F8840404848478026A7A38408080B8C4E2
:1041000084848478026A7AFC040808101020204015
:1041100040026A7A78848448304884848478026AC9
:104120007A788484848C740484887022387840E09F
:1041300040000040E040212878C0C00000C040405E
:1041400080125979081020408040201008056474BE
:10415000FC0000FC1259798040201008102040809B
:10416000026A7A78848408101010001010026A7AAB
:1041700038449CA4A4A4A49C403C026A7A3048849D
:104180008484FC84848484026A7AF0888488F08839
:10419000848488F0026A7A78848480808080848431
:1041A00078026A7AF08884848484848488F0026A3D
:1041B0007AFC808080F080808080FC026A7AFC80BB
:1041C0008080F08080808080026A7A788484808019
:1041D0009C84848C74026A7A84848484FC848484BD
:1041E0008484125A7AF82020202020202020F802EF
:1041F0006A7A1C080808080808888870026A7A84A5
:104200008890A0C0A090888484026A7A8080808090
:104210008080808080FC026A7A84CCCCB4B48484B0
:10422000848484026A7A8484C4C4A4948C8C848434
:10423000026A7A78848484848484848478026A7AA2
:10424000F884848484F880808080006C7C78848406
:10425000848484E4948C780804026A7AF8848484E0
:1042600084F890888484026A7A7884848060180450
:10427000848478027A7AFE1010101010101010103A
:10428000026A7A84848484848484848478026A7A46
:1042900084848484484848303030125A7A88888828
:1042A000888888A8A8A850026A7A84844848303050
:1042B00048488484125A7A888888505020202020C8
:1042C00020026A7AFC0408101020404080FC204D37
:1042D0007DF08080808080808080808080F0006D94
:1042E0007D80804040202020101008080404104DDC
:1042F0007DF01010101010101010101010F00A6344
:1043000073304884006171FC2A3373804020026757
:10431000777884047C84847C026A7A808080B8C444
:10432000848484C4B802677778848080808478022B
:104330006A7A040404748C8484848C7402677778A9
:104340008484FC808478026A7A18242020F8202053
:10435000202020006979748888887040B8847802A9
:104360006A7A808080B8C48484848484125A7A20D3
:104370002000602020202020F8105C7C0808001815
:104380000808080808888870026A7A808080889007
:10439000A0E0908884125A7A6020202020202020DB
:1043A00020F8125777D0A8A8A8A8A888026777B8DD
:1043B000C484848484840267777884848484847841
:1043C000006979B8C4848484C4B880800069797431
:1043D0008C8484848C740404026777B8C4848080DD
:1043E000808002677778844030088478026A7A2077
:1043F0002020F820202020241802677784848484D9
:10440000848C7412577788888850502020125777F0
:104410008888A8A8A8A85002677784844830488470
:1044200084006979848484848C7404847802677736
:10443000FC0810202040FC204D7D30404040404092
:1044400080404040404030301D7D808080808080B2
:1044500080808080808080104D7DC02020202020A2
:10446000102020202020C009647440A49408FFFF7D
:10447000FFFFFFFFFFFFFFFFFFFFFFFFFFFFFFFF4C
:10448000FFFFFFFFFFFFFFFFFFFFFFFFFFFFFF0E2D
:104490000070321A7A808000808080808080800165
:1044A00069792078A4A0A0A0A47820125979304876
:1044B0004040F04040F0480466768478484878846C
:1044C000125A7A88505020F820F8202020321A7A88
:1044D00080808080000080808080026B7B788440B8
:1044E00030488448300884781B42729090026B7B7D
:1044F0007884B4CCC4C4C4CCB4847815587870889B
:104500007888986800F8026777142850A05028141B
:10451000125474F8080808164171F0026B7B788415
:10452000F4CCCCF4CCCCCC84781B5171F819447405
:10453000609090601256762020F82020F816477779
:10454000609010204080F0164777609010601090C7
:10455000602A337320408010587888888888D8A8CB
:104560008080105C7C78A8A8A8A86828282828281B
:10457000383711718020237340408026377740C040
:1045800040404040E01646766090906000F0026740
:1045900077A05028142850A0026A7A40C448485096
:1045A000242C549C84026A7A40C4484850283444DD
:1045B000889C026A7AC4244830D0244C549C04005D
:1045C0006B7B2020002020202040848478026C7C9B
:1045D00020100030488484FC84848484026C7C1025
:1045E000200030488484FC84848484026C7C3048BD
:1045F0000030488484FC84848484026C7C64980049
:1046000030488484FC84848484026B7B4800304876
:104610008484FC84848484026B7B304830488484A6
:10462000FC84848484026A7A3C509090FC90909040
:10463000909C006C7C788484808080808484781056
:1046400020026C7C201000FC808080F8808080FC40
:10465000026C7C102000FC808080F8808080FC024E
:104660006C7C304800FC808080F8808080FC026B8D
:104670007B4800FC808080F8808080FC125C7C405D
:104680002000F820202020202020F8125C7C102020
:1046900000F820202020202020F8125C7C205000F0
:1046A000F820202020202020F8125B7B5000F820EA
:1046B000202020202020F8027A7A78444242F242D8
:1046C00042424478026C7C649800C4C4A4A49494CC
:1046D000948C8C026C7C2010007884848484848484
:1046E0008478026C7C1020007884848484848484A0
:1046F00078026C7C30480078848484848484847854
:10470000026C7C6498007884848484848484780235
:104710006B7B4800788484848484848478027777EF
:1047200082442810284482006E7E0404788C94947D
:1047300094A4A4A4C4788080026C7C20100084849B
:1047400084848484848478026C7C10200084848433
:10475000848484848478026C7C30480084848484DB
:104760008484848478026B7B480084848484848479
:10477000848478125C7C102000888850502020208F
:104780002020026A7A8080F884848484F880800201
:104790006A7A304848487048444444F8026A7A20AB
:1047A00010007884047C84847C026A7A0810007883
:1047B00084047C84847C026A7A3048007884047C97
:1047C00084847C026A7A6498007884047C84847C83
:1047D00002697948007884047C84847C026B7B3095
:1047E0004830007884047C84847C0277777C923221
:1047F0005E90927C00697978848080808478102033
:10480000026A7A201000788484FC808478026A7AB4
:10481000102000788484FC808478026A7A30480012
:10482000788484FC8084780269794800788484FCE8
:10483000808478125A7A402000602020202020F8BE
:10484000125A7A102000602020202020F8125A7A74
:10485000609000602020202020F8125979500060DC
:104860002020202020F8125B7B5020500878888878
:1048700088888870026A7A649800B8C484848484C2
:1048800084026A7A20100078848484848478026A9E
:104890007A10200078848484848478026A7A30488C
:1048A0000078848484848478026A7A6498007884A6
:1048B0008484848478026979480078848484848438
:1048C000780265753000FC0030006B7B040878943A
:1048D00094A4A4C4788080026A7A2010008484841E
:1048E00084848C74026A7A10200084848484848C8A
:1048F00074026A7A30480084848484848C740269E7
:1049000079480084848484848C74006C7C1020003A
:10491000848444482838109060006C7C808080B883
:10492000C4848484C4B88080006B7B480084844441
:1049300048283810906000002100240027002A0039
:104940002D003000330001010000040107010A01BD
:1049500000002200250028002B002E00310034002A
:1049600002010000050108010B01000020002300E6
:10497000260029002C002F00320000010000030156
:1049800006010901050505050705080808080202D2
:1049900002020A0A080804040404010101010101D9
:1049A00001010303030303030303040707070C0CBC
:1049B0000C0C0C0C0C0C0202020206060606060683
:1049C00006060B0B0B0B0B0B0B0B07070A0A0A0A4D
:1049D0000A0A0505050401021020200808102040DD
:1049E00010204080020102010804020101020408B3
:1049F0001020408080402010080402018004020141
:104A00008040201008040201080402010102040889
:104A10001020408001020408102040801008040883
:104A200080102040044080100000090A02080B0C8E
:104A30000D07060304010000000000000000000054
:104A40000000000000000000000000000000000066
:104A50000000000011100F00000000000000000026
:104A600000000000000000000000000000000249FB
:104A70004E46494E4954594E414ECDCCCC3D0AD7B5
:104A8000233C17B7D13877CC2B329595E6241FB14C
:104A90004F0A000020410000C84200401C4620BCD4
:104AA000BE4CCA1B0E5AAEC59D740D9434250D9490
:104AB0001C250D941D250D94001A0D946E110D9456
:104AC000F6240D940B250D9426130D94C4270D94F4
:104AD000AC120D94DC0E0D9475140D94CA170D9440
:104AE0004A1A0D94CC080D94ED240D94E2190D94FE
:104AF000372D0D94D0190D94D9190D94EB190D94EF
:104B000019100D942E1F0D94DC280D945B300D941C
:104B1000C9100D9464250D9413120D942410914521
:104B2000B3485B255925AE4811241FBECFEFD1E213
:104B3000DEBFCDBF00E00CBF15E0A0E0B2E0E6E5CF
:104B4000F3E702E00BBF02C007900D92AE3DB10744
:104B5000D9F71BBE17E1AEEDB5E001C01D92A4353B
:104B6000B107E1F71BE4C6E2DBE404C02297FE01D3
:104B70000F945139CE31D107C9F70F944D300D94B0
:104B80009F390C940000CF93DF93BC0182309105D4
:104B900010F462E070E0A0915017B0915117ED0150
:104BA000E0E0F0E040E050E021C088819981861784
:104BB000970769F48A819B81309719F093838283E8
:104BC00004C09093511780935017FE0134C06817AA
:104BD000790738F44115510519F08417950708F441
:104BE000AC01FE018A819B819C01E9012097E9F6D5
:104BF00041155105A9F1CA01861B970B049708F4CA
:104C0000BA01E0E0F0E02AC08D919C9111978417E1
:104C10009507F9F46417750781F412968D919C91AC
:104C20001397309719F09383828304C090935117A0
:104C300080935017FD0132964CC0CA01861B970B1A
:104C4000FD01E80FF91F6193719302978D939C9377
:104C500040C0FD01828193819C01D9011097A1F68A
:104C600080914E1790914F17892B41F480913E040B
:104C700090913F0490934F1780934E1740914004BA
:104C8000509141044115510541F44DB75EB78091F3
:104C90003C0490913D04481B590B20914E173091D4
:104CA0004F17CA01821B930B8617970780F0AB0141
:104CB0004E5F5F4F8417950750F0420F531F50937C
:104CC0004F1740934E17F9016193719302C0E0E0D2
:104CD000F0E0CF01DF91CF910895CF93DF9300975C
:104CE00009F450C0EC0122971B821A82A091501740
:104CF000B0915117109709F140E050E0AC17BD0793
:104D000008F1BB83AA83FE0121913191E20FF31FC9
:104D1000AE17BF0779F48D919C911197280F391F19
:104D20002E5F3F4F3983288312968D919C91139764
:104D30009B838A834115510571F4D0935117C09319
:104D4000501720C012968D919C911397AD0100973A
:104D500011F0DC01D3CFFA01D383C28321913191C9
:104D6000E20FF31FCE17DF0769F488819981280FBE
:104D7000391F2E5F3F4FFA01318320838A819B8147
:104D800093838283DF91CF910895A0E0B0E0EBECB4
:104D9000F6E20D946E39EC015B016115710519F0B5
:104DA000FB0191838083F9908F2D90E00F9455390A
:104DB000892BC9F7FDE2FF1621F4F990EE24E39464
:104DC00005C02BE2F21609F4F990EE248E01015091
:104DD0001040C8016FE67AE443E050E072D2892BBC
:104DE000F9F48E010E5F1F4FC80162E77AE445E0D7
:104DF00050E067D2892B19F48E01095F1F4FA1146F
:104E0000B10419F0F50111830083E0FC04C070E0E7
:104E100090E080E813C070E090E080E86FEF07C199
:104E2000C80167E77AE443E050E04BD2892B69F48C
:104E3000A114B10429F470E090E080EC6FE7F7C0B2
:104E40002296F501D183C083F6CF8824992440E0CF
:104E500050E060E070E0EF2DE053EA30A0F5F2E0C2
:104E6000EF2A8E2D90E09C0128703070E2FE06C083
:104E7000232B79F50894811C911C2BC0232B19F04E
:104E8000089481089108DB01CA0112E0880F991F7C
:104E9000AA1FBB1F1A95D1F7480F591F6A1F7B1F06
:104EA000440F551F661F771F4E0F511D611D711D49
:104EB000483929E9520729E9620729E1720748F0D0
:104EC00084E0E82A06C0EE3F31F4E3FC39C098E004
:104ED000E92AF990C0CFE53311F0E53189F5299140
:104EE0002D3219F4E0E1EE2A05C02B3219F081E0F1
:104EF00090E003C0299182E090E0E22FE053EA3095
:104F000018F0C81BD90B1CC020E030E0FCE02038B2
:104F10003F075CF4C901880F991F880F991F280F5C
:104F2000391F220F331F2E0F311DE991E053EA3054
:104F300068F3E4FE03C0309521953F4F820E931E27
:104F4000CE2CDD24E1FE07C0A114B10421F021978D
:104F5000F501D183C083CB01BA010F94BA357B012F
:104F60008C01F3E0CF22DD2423E0C216D10421F42A
:104F700017FB109517F9109557016801C801B70183
:104F800020E030E040E050E00F941A35882309F427
:104F90004AC097FE0DC02EE8E22E2AE4F22E90942D
:104FA000819491089394C0E2D0E000E010E012C038
:104FB00096EAE92E9AE4F92EF6CFF701259135917C
:104FC00045915491C601B5010F94FA375B016C010C
:104FD0008C1A9D0A8C169D0684F7D595C7950F5F90
:104FE0001F4F0630110529F08CEF9FEFE80EF91ED8
:104FF000F1CFC501D6017C018D018C2D880F8D2D3F
:10500000881F8F3F51F0C601B50120E030E040E03D
:1050100050E00F941A35882331F482E290E09093A7
:105020005317809352177E2D9F2D802F612F272F8E
:10503000392F482F562FB901CA01CDB7DEB7ECE0A2
:105040000D948A392F923F925F926F927F928F9246
:105050009F92AF92BF92CF92DF92EF92FF920F9307
:105060001F93CF93DF938C011B01EA01611571053A
:1050700019F0FB0191838083209749F0CE010297BC
:10508000839728F020E030E040E050E0F6C0F801DF
:10509000A1908F018A2D90E00F945539892BB9F793
:1050A000FDE2AF1631F4F801A1908F01552453941D
:1050B00007C0FBE2AF1619F4F801A1908F01552447
:1050C000209719F0C031D105C1F4F0E3AF1679F49F
:1050D000F8018081883711F0883549F4F801A18002
:1050E0000E5F1F4FF2E05F2AC0E1D0E006C02097BC
:1050F00021F480E3A816E9F427C0C830D10531F1C6
:10510000C930D10524F4C230D10531F50CC0CA3004
:10511000D10589F0C031D105F9F4C12CD12CE12C95
:10512000B8E0FB2E28C0C12CD12CE12CA0E4FA2E33
:1051300022C0CAE0D0E0FCECCF2EFCECDF2EFCEC71
:10514000EF2EFCE0FF2E17C0C8E0D0E0C12CD12C20
:10515000E12CE0E1FE2E0FC09E01442737FD409573
:10516000542F60E070E080E090E80F941239C9019C
:10517000DA016C017D0120E030E040E050E060E0C9
:105180003E01882477FC8094982C70EDB72EBA0CE1
:10519000E9E0EB1570F48A2D81548A3118F499EC0A
:1051A000B92E06C08A2D81568A3150F589EAB82E6B
:1051B000BA0C8B2D90E08C179D0714F56F3FE1F032
:1051C000C216D306E406F506B0F0CA01B901A4017F
:1051D00093010F94CC389B01AC012B0D311D411D67
:1051E000511D2130F0E03F07F0E04F07F0E85F0786
:1051F00010F461E001C06FEFF801A1908F01C5CFFD
:105200002114310481F0662331F001501040F10186
:105210001183008308C051FE1AC002501040F101F2
:105220001183008314C067FF12C050FC05C02FEF2C
:105230003FEF4FEF5FE704C020E030E040E050E890
:1052400082E290E0909353178093521716C050FE5D
:1052500008C050954095309521953F4F4F4F5F4F77
:105260000CC057FF0AC082E290E0909353178093DE
:1052700052172FEF3FEF4FEF5FE7B901CA01DF9100
:10528000CF911F910F91FF90EF90DF90CF90BF9043
:10529000AF909F908F907F906F905F903F902F90F6
:1052A0000895FB01DC0105900D920020E1F70895BF
:1052B000FC0105900020E9F7809590958E0F9F1FC7
:1052C0000895FB01DC014150504088F08D918134FC
:1052D0001CF08B350CF4805E659161341CF06B35ED
:1052E0000CF4605E861B611171F3990B0895881BA5
:1052F000FCCFFB01DC014150504048F005900D927D
:105300000020C9F701C01D9241505040E0F70895B8
:10531000FB0155915523A9F0BF01DC014D914517C3
:105320004111E1F759F4CD010590002049F04D916C
:1053300040154111C9F3FB014111EFCF81E090E02D
:1053400001970895FB01DC0104C08D910190801943
:1053500021F441505040C8F7881B990B0895FB0178
:10536000DC0102C001900D9241505040D8F70895E1
:10537000FB01DC018D9181341CF08B350CF4805ED7
:10538000619161341CF06B350CF4605E861B611119
:1053900089F3990B0895FB01DC010D900020E9F7DA
:1053A000119701900D920020E1F70895FC01819181
:1053B000861721F08823D9F7992708953197CF01CF
:1053C0000895FB01DC018D91019080190110D9F342
:1053D000990B0895FB01DC0101900D920020E1F78B
:1053E0000895FB01DC014150504030F08D91019057
:1053F000801919F40020B9F7881B990B0895FB0157
:10540000DC014150504048F001900D920020C9F756
:1054100001C01D9241505040E0F70895FB015191A9
:105420005523A9F0BF01DC014D9145174111E1F76A
:1054300059F4CD010190002049F04D9140154111E2
:10544000C9F3FB014111EFCF81E090E0019708958E
:10545000AEE0B0E0EEE2FAE20D9476390E891F89F3
:105460008EE08C831A8309838FEF9FE79E838D8361
:105470009E01265E3F4FCE010196688D798DA90170
:105480000AD02F813885020F131FF80110822E9643
:10549000E4E00D949239ABE0B0E0E1E5FAE20D947E
:1054A00068393C012B015A01FC0117821682838165
:1054B00081FD03C06FEF7FEFB9C19AE0892E1E0115
:1054C0000894211C311CF3012381F20123FD8591F5
:1054D00023FF81912F01882309F4A5C1853239F476
:1054E00023FD859123FF81912F01853221F490E0E6
:1054F000B301B7D1E8CF982FFF24EE249924FFE120
:10550000FF15D0F09B3269F09C3228F4903259F0AC
:10551000933291F40EC09D3249F0903369F441E02A
:1055200024C052E0F52A84E0F82A28C098E0F92A3D
:1055300025C0E0E1FE2A22C0F7FC29C0892F805354
:105540008A3070F4F6FE05C0989C902C1124980EB9
:1055500015C0E89CE02C1124E80EF0E2FF2A0EC0F2
:105560009E3229F4F6FC5FC140E4F42A07C09C3661
:1055700019F450E8F52A02C0983649F4F20123FDE7
:10558000959123FF91912F01992309F0B8CF892F8D
:105590008554833018F08052833038F444E050E072
:1055A000A40EB51E5FE359830FC0933631F09337D5
:1055B00079F0933509F052C01FC0F50180818983CD
:1055C00042E050E0A40EB51E610101E010E011C000
:1055D000F501C080D180F6FC03C06FEF7FEF02C001
:1055E000692D70E042E050E0A40EB51EC6012ED138
:1055F0008C015FE7F52213C0F501C080D180F6FC75
:1056000003C06FEF7FEF02C0692D70E042E050E011
:10561000A40EB51EC6010FD18C0150E8F52AF3FE89
:1056200006C018C080E290E0B3011BD1EA948E2D31
:1056300090E008171907B0F30DC0F601F7FC85914B
:10564000F7FE81916F0190E0B3010BD1E110EA9474
:10565000015010400115110581F7E2C0943611F098
:10566000993661F5F7FE08C0F5012081318142814C
:10567000538184E090E00AC0F501808191819C0112
:10568000442737FD4095542F82E090E0A80EB91EC4
:105690009FE6F92257FF09C0509540953095219516
:1056A0003F4F4F4F5F4FE0E8FE2ACA01B901A10109
:1056B0002AE030E002D1D82ED2183FC0953729F425
:1056C0001F2D1F7E2AE030E01DC01F2D197F9F3641
:1056D00061F0903720F4983509F0A5C00FC09037DD
:1056E00039F0983709F09FC004C028E030E00AC0C4
:1056F000106114FD146020E130E004C014FD166058
:1057000020E132E017FF08C0F501608171818281DC
:10571000938144E050E008C0F50180819181BC0193
:1057200080E090E042E050E0A40EB51EA101C5D09B
:10573000D82ED2188FE7F82EF122F6FE0BC05EEFBE
:10574000F522D91438F4F4FE07C0F2FC05C08FEE40
:10575000F82202C01D2D01C0192DF4FE0DC0FE015E
:10576000ED0DF11D8081803319F499EEF92208C006
:105770001F5FF2FE05C003C08F2D867809F01F5F02
:105780000F2DF3FC13C0F0FE0EC01E1510F09D2C63
:105790000AC09D2C9E0C911A1E2D05C080E290E03F
:1057A000B3015FD01F5F1E15C8F304C01E1510F4AF
:1057B000E11A01C0EE2404FF0EC080E390E0B301C3
:1057C00050D002FF1BC001FD03C088E790E00EC06F
:1057D00088E590E00BC0802F867881F001FF02C041
:1057E0008BE201C080E2F7FC8DE290E0B30139D09A
:1057F00005C080E390E0B30134D09A94D914C8F383
:10580000DA94F101ED0DF11D808190E0B30129D012
:10581000DD20B1F705C080E290E0B30122D0EA9428
:10582000EE20C9F750CEF30166817781CB012B962C
:10583000E2E10D948439FC01059061507040011043
:10584000D8F7809590958E0F9F1F0895FC016150A9
:10585000704001900110D8F7809590958E0F9F1F92
:1058600008950F931F93CF93DF938C01EB018B81EE
:1058700081FF1BC082FF0DC02E813F818C819D81E5
:105880002817390764F4E881F9810193F983E883E3
:1058900006C0E885F985802F1995892B31F48E8112
:1058A0009F8101969F838E8302C00FEF1FEFC80177
:1058B000DF91CF911F910F910895FA01AA27283007
:1058C00051F1203181F1E8946F936E7F6E5F7F4FCD
:1058D0008F4F9F4FAF4FB1E03ED0B4E03CD0670F49
:1058E000781F891F9A1FA11D680F791F8A1F911D9C
:1058F000A11D6A0F711D811D911DA11D20D009F4EC
:1059000068943F912AE0269F11243019305D31932D
:10591000DEF6CF010895462F4770405D4193B3E016
:105920000FD0C9F7F6CF462F4F70405D4A3318F0BD
:10593000495D31FD4052419302D0A9F7EACFB4E06E
:10594000A6959795879577956795BA95C9F7009726
:105950006105710508959B01AC010A2E06945795C7
:10596000479537952795BA95C9F7620F731F841F1E
:10597000951FA01D0895FC01128213820895FC0159
:105980008381882311F081E082830895FC01828164
:10599000811112820895CF93DF93DC01FC01EB5556
:1059A000FE4F808191810097C9F101979183808397
:1059B000ED01CC5ADF4FFD01ED58FF4F8BE1019017
:1059C00009928150E1F7FD01EE5AFF4FAF58BF4FEA
:1059D0008D919C911197A157B04091838083FD01D7
:1059E000ED58FF4F20E030E0AD014B555E4F10C049
:1059F0002F5F3F4FEF01DF015F968BE10D90099222
:105A00008150E1F7858D968D329791838083B19691
:105A1000DA018D919C912817390750F3DF91CF91CE
:105A20000895FC0188E895E091838083878188232D
:105A300021F0CF0104960C941BBD0895CF92DF9204
:105A4000EF92FF920F931F93DF93CF93CDB7DEB703
:105A50006F970FB6F894DEBF0FBECDBF8C016B0100
:105A6000095A1F4FD8018C9107551040882321F403
:105A70002FE2E22EF12C03C090E5E92EF12CE00E8E
:105A8000F11E88E895E09A8389831C821B82188620
:105A90001D82B7016C5F7F4FCE010596A60121E004
:105AA0000E9407C4882391F5EEE4F5E0949108C0C4
:105AB0008091C00085FFFCCF9093C60031969491F1
:105AC0009923B1F7EFE2F1E0949108C08091C00012
:105AD00085FFFCCF9093C600319694919923B1F73E
